{"project/contracts/MemeTokenFactory.sol":{"MemeTokenFactory":{"abi":[{"anonymous":false,"inputs":[{"indexed":true,"internalType":"address","name":"token","type":"address"},{"indexed":true,"internalType":"address","name":"owner","type":"address"},{"indexed":false,"internalType":"string","name":"name","type":"string"},{"indexed":false,"internalType":"string","name":"symbol","type":"string"},{"indexed":false,"internalType":"uint8","name":"decimals","type":"uint8"},{"indexed":false,"internalType":"uint256","name":"initialSupply","type":"uint256"},{"indexed":false,"internalType":"uint256","name":"index","type":"uint256"}],"name":"TokenCreated","type":"event"},{"inputs":[],"name":"allTokensLength","outputs":[{"internalType":"uint256","name":"","type":"uint256"}],"stateMutability":"view","type":"function"},{"inputs":[{"internalType":"string","name":"name_","type":"string"},{"internalType":"string","name":"symbol_","type":"string"},{"internalType":"uint8","name":"decimals_","type":"uint8"},{"internalType":"uint256","name":"initialSupply_","type":"uint256"},{"internalType":"address","name":"owner_","type":"address"}],"name":"createToken","outputs":[{"internalType":"address","name":"token","type":"address"}],"stateMutability":"nonpayable","type":"function"},{"inputs":[],"name":"getAllTokens","outputs":[{"internalType":"address[]","name":"","type":"address[]"}],"stateMutability":"view","type":"function"},{"inputs":[{"internalType":"uint256","name":"offset","type":"uint256"},{"internalType":"uint256","name":"limit","type":"uint256"}],"name":"getTokens","outputs":[{"internalType":"address[]","name":"page","type":"address[]"}],"stateMutability":"view","type":"function"},{"inputs":[{"internalType":"address","name":"owner","type":"address"}],"name":"getTokensByOwner","outputs":[{"internalType":"address[]","name":"","type":"address[]"}],"stateMutability":"view","type":"function"},{"inputs":[{"internalType":"address","name":"","type":"address"}],"name":"isTokenFromFactory","outputs":[{"internalType":"bool","name":"","type":"bool"}],"stateMutability":"view","type":"function"},{"inputs":[{"internalType":"uint256","name":"index","type":"uint256"}],"name":"tokenAt","outputs":[{"internalType":"address","name":"","type":"address"}],"stateMutability":"view","type":"function"},{"inputs":[{"internalType":"address","name":"","type":"address"}],"name":"tokenToOwner","outputs":[{"internalType":"address","name":"","type":"address"}],"stateMutability":"view","type":"function"}],"evm":{"bytecode":{"linkReferences":{},"object":"608060405234801561000f575f80fd5b506113b08061001d5f395ff3fe608060405234801562000010575f80fd5b506004361062000090575f3560e01c80635165749e116200005f5780635165749e146200012857806392a91a3a146200013f578063dbb80e421462000156578063dbd593061462000167575f80fd5b80632a5c792a146200009457806340398d6714620000b6578063494cfc6c14620000cd5780634dfb4c5314620000e4575b5f80fd5b6200009e6200019d565b604051620000ad919062000583565b60405180910390f35b6200009e620000c7366004620005ed565b620001fe565b6200009e620000de36600462000610565b62000273565b6200010f620000f5366004620005ed565b60026020525f90815260409020546001600160a01b031681565b6040516001600160a01b039091168152602001620000ad565b6200010f6200013936600462000679565b6200039c565b6200010f620001503660046200071d565b62000504565b5f54604051908152602001620000ad565b6200018c62000178366004620005ed565b60036020525f908152604090205460ff1681565b6040519015158152602001620000ad565b60605f805480602002602001604051908101604052809291908181526020018280548015620001f457602002820191905f5260205f20905b81546001600160a01b03168152600190910190602001808311620001d5575b5050505050905090565b6001600160a01b0381165f908152600160209081526040918290208054835181840281018401909452808452606093928301828280156200026757602002820191905f5260205f20905b81546001600160a01b0316815260019091019060200180831162000248575b50505050509050919050565b5f5460609080841062000296575050604080515f81526020810190915262000396565b5f620002a384866200075d565b905081811115620002b15750805b5f620002be868362000773565b90508067ffffffffffffffff811115620002dc57620002dc62000735565b60405190808252806020026020018201604052801562000306578160200160208202803683370190505b5093505f5b8181101562000391575f6200032182896200075d565b8154811062000334576200033462000789565b905f5260205f20015f9054906101000a90046001600160a01b031685828151811062000364576200036462000789565b6001600160a01b03909216602092830291909101909101528062000388816200079d565b9150506200030b565b505050505b92915050565b5f806001600160a01b03831615620003b55782620003b7565b335b905088888888888886604051620003ce9062000575565b620003e09796959493929190620007e0565b604051809103905ff080158015620003fa573d5f803e3d5ffd5b506001600160a01b038082165f818152600360209081526040808320805460ff191660019081179091556002835281842080549689166001600160a01b03199788168117909155808552818452918420805480830182559085529284209092018054861685179055825480830184558380527f290decd9548b62a8d60345a988386fc84ba6bc95484008f6362f93160ef3e56301805490951684179094559054939550919290917f0813befb236cb0e263b6572f828c20a7b124329bcf797735ad2c7518c4e470c2918d918d918d918d918d918d91620004db919062000773565b604051620004f0979695949392919062000836565b60405180910390a350979650505050505050565b5f80548210620005465760405162461bcd60e51b815260206004820152600960248201526834b73232bc1037b7b160b91b604482015260640160405180910390fd5b5f82815481106200055b576200055b62000789565b5f918252602090912001546001600160a01b031692915050565b610af7806200088483390190565b602080825282518282018190525f9190848201906040850190845b81811015620005c55783516001600160a01b0316835292840192918401916001016200059e565b50909695505050505050565b80356001600160a01b0381168114620005e8575f80fd5b919050565b5f60208284031215620005fe575f80fd5b6200060982620005d1565b9392505050565b5f806040838503121562000622575f80fd5b50508035926020909101359150565b5f8083601f84011262000642575f80fd5b50813567ffffffffffffffff8111156200065a575f80fd5b60208301915083602082850101111562000672575f80fd5b9250929050565b5f805f805f805f60a0888a03121562000690575f80fd5b873567ffffffffffffffff80821115620006a8575f80fd5b620006b68b838c0162000631565b909950975060208a0135915080821115620006cf575f80fd5b50620006de8a828b0162000631565b909650945050604088013560ff81168114620006f8575f80fd5b9250606088013591506200070f60808901620005d1565b905092959891949750929550565b5f602082840312156200072e575f80fd5b5035919050565b634e487b7160e01b5f52604160045260245ffd5b634e487b7160e01b5f52601160045260245ffd5b8082018082111562000396576200039662000749565b8181038181111562000396576200039662000749565b634e487b7160e01b5f52603260045260245ffd5b5f60018201620007b157620007b162000749565b5060010190565b81835281816020850137505f828201602090810191909152601f909101601f19169091010190565b60a081525f620007f560a08301898b620007b8565b82810360208401526200080a81888a620007b8565b60ff969096166040840152505060608101929092526001600160a01b0316608090910152949350505050565b60a081525f6200084b60a08301898b620007b8565b82810360208401526200086081888a620007b8565b60ff9690961660408401525050606081019290925260809091015294935050505056fe608060405234801562000010575f80fd5b5060405162000af738038062000af783398101604081905262000033916200025c565b6001600160a01b038116620000795760405162461bcd60e51b815260206004820152600760248201526604f776e65723d360cc1b60448201526064015b60405180910390fd5b5f62000086868262000390565b50600162000095858262000390565b506002805460ff191660ff8516179055620000b18183620000bc565b50505050506200047e565b6001600160a01b038216620001145760405162461bcd60e51b815260206004820152601360248201527f45524332303a206d696e7420746f207a65726f00000000000000000000000000604482015260640162000070565b8060035f82825462000127919062000458565b90915550506001600160a01b0382165f90815260046020526040812080548392906200015590849062000458565b90915550506040518181526001600160a01b038316905f907fddf252ad1be2c89b69c2b068fc378daa952ba7f163c4a11628f55a4df523b3ef9060200160405180910390a35050565b634e487b7160e01b5f52604160045260245ffd5b5f82601f830112620001c2575f80fd5b81516001600160401b0380821115620001df57620001df6200019e565b604051601f8301601f19908116603f011681019082821181831017156200020a576200020a6200019e565b8160405283815260209250868385880101111562000226575f80fd5b5f91505b838210156200024957858201830151818301840152908201906200022a565b5f93810190920192909252949350505050565b5f805f805f60a0868803121562000271575f80fd5b85516001600160401b038082111562000288575f80fd5b6200029689838a01620001b2565b96506020880151915080821115620002ac575f80fd5b50620002bb88828901620001b2565b945050604086015160ff81168114620002d2575f80fd5b6060870151608088015191945092506001600160a01b0381168114620002f6575f80fd5b809150509295509295909350565b600181811c908216806200031957607f821691505b6020821081036200033857634e487b7160e01b5f52602260045260245ffd5b50919050565b601f8211156200038b575f81815260208120601f850160051c81016020861015620003665750805b601f850160051c820191505b81811015620003875782815560010162000372565b5050505b505050565b81516001600160401b03811115620003ac57620003ac6200019e565b620003c481620003bd845462000304565b846200033e565b602080601f831160018114620003fa575f8415620003e25750858301515b5f19600386901b1c1916600185901b17855562000387565b5f85815260208120601f198616915b828110156200042a5788860151825594840194600190910190840162000409565b50858210156200044857878501515f19600388901b60f8161c191681555b5050505050600190811b01905550565b808201808211156200047857634e487b7160e01b5f52601160045260245ffd5b92915050565b61066b806200048c5f395ff3fe608060405234801561000f575f80fd5b5060043610610090575f3560e01c8063313ce56711610063578063313ce567146100ff57806370a082311461011457806395d89b4114610133578063a9059cbb1461013b578063dd62ed3e1461014e575f80fd5b806306fdde0314610094578063095ea7b3146100b257806318160ddd146100d557806323b872dd146100ec575b5f80fd5b61009c610178565b6040516100a991906104e5565b60405180910390f35b6100c56100c036600461054b565b610207565b60405190151581526020016100a9565b6100de60035481565b6040519081526020016100a9565b6100c56100fa366004610573565b61021c565b60025460405160ff90911681526020016100a9565b6100de6101223660046105ac565b60046020525f908152604090205481565b61009c6102da565b6100c561014936600461054b565b6102e9565b6100de61015c3660046105cc565b600560209081525f928352604080842090915290825290205481565b60605f8054610186906105fd565b80601f01602080910402602001604051908101604052809291908181526020018280546101b2906105fd565b80156101fd5780601f106101d4576101008083540402835291602001916101fd565b820191905f5260205f20905b8154815290600101906020018083116101e057829003601f168201915b5050505050905090565b5f6102133384846102f5565b50600192915050565b6001600160a01b0383165f9081526005602090815260408083203384529091528120545f1981146102c4578281101561029c5760405162461bcd60e51b815260206004820152601d60248201527f45524332303a20696e73756666696369656e7420616c6c6f77616e636500000060448201526064015b60405180910390fd5b6001600160a01b0385165f908152600560209081526040808320338452909152902083820390555b6102cf8585856103b7565b506001949350505050565b606060018054610186906105fd565b5f6102133384846103b7565b6001600160a01b0383161580159061031557506001600160a01b03821615155b6103575760405162461bcd60e51b815260206004820152601360248201527245524332303a207a65726f206164647265737360681b6044820152606401610293565b6001600160a01b038381165f8181526005602090815260408083209487168084529482529182902085905590518481527f8c5be1e5ebec7d5bd14f71427d1e84f3dd0314c0f7b2291e5b200ac8c7c3b925910160405180910390a3505050565b6001600160a01b038316158015906103d757506001600160a01b03821615155b6104195760405162461bcd60e51b815260206004820152601360248201527245524332303a207a65726f206164647265737360681b6044820152606401610293565b6001600160a01b0383165f90815260046020526040902054818110156104785760405162461bcd60e51b815260206004820152601460248201527345524332303a2062616c616e63653c76616c756560601b6044820152606401610293565b6001600160a01b038085165f8181526004602052604080822086860390559286168082529083902080548601905591517fddf252ad1be2c89b69c2b068fc378daa952ba7f163c4a11628f55a4df523b3ef906104d79086815260200190565b60405180910390a350505050565b5f6020808352835180828501525f5b81811015610510578581018301518582016040015282016104f4565b505f604082860101526040601f19601f8301168501019250505092915050565b80356001600160a01b0381168114610546575f80fd5b919050565b5f806040838503121561055c575f80fd5b61056583610530565b946020939093013593505050565b5f805f60608486031215610585575f80fd5b61058e84610530565b925061059c60208501610530565b9150604084013590509250925092565b5f602082840312156105bc575f80fd5b6105c582610530565b9392505050565b5f80604083850312156105dd575f80fd5b6105e683610530565b91506105f460208401610530565b90509250929050565b600181811c9082168061061157607f821691505b60208210810361062f57634e487b7160e01b5f52602260045260245ffd5b5091905056fea26469706673582212206eb1c025267ff2a7f47a51fdf1625cc7a858d846394c268164ca9d2dc752997064736f6c63430008140033a264697066735822122092aa1993e633280907f91c0f1a3acc5bb11594b9f95f73a1a0c586cea34f473b64736f6c63430008140033","opcodes":"PUSH1 0x80 PUSH1 0x40 MSTORE CALLVALUE DUP1 ISZERO PUSH2 0xF JUMPI PUSH0 DUP1 REVERT JUMPDEST POP PUSH2 0x13B0 DUP1 PUSH2 0x1D PUSH0 CODECOPY PUSH0 RETURN INVALID PUSH1 0x80 PUSH1 0x40 MSTORE CALLVALUE DUP1 ISZERO PUSH3 0x10 JUMPI PUSH0 DUP1 REVERT JUMPDEST POP PUSH1 0x4 CALLDATASIZE LT PUSH3 0x90 JUMPI PUSH0 CALLDATALOAD PUSH1 0xE0 SHR DUP1 PUSH4 0x5165749E GT PUSH3 0x5F JUMPI DUP1 PUSH4 0x5165749E EQ PUSH3 0x128 JUMPI DUP1 PUSH4 0x92A91A3A EQ PUSH3 0x13F JUMPI DUP1 PUSH4 0xDBB80E42 EQ PUSH3 0x156 JUMPI DUP1 PUSH4 0xDBD59306 EQ PUSH3 0x167 JUMPI PUSH0 DUP1 REVERT JUMPDEST DUP1 PUSH4 0x2A5C792A EQ PUSH3 0x94 JUMPI DUP1 PUSH4 0x40398D67 EQ PUSH3 0xB6 JUMPI DUP1 PUSH4 0x494CFC6C EQ PUSH3 0xCD JUMPI DUP1 PUSH4 0x4DFB4C53 EQ PUSH3 0xE4 JUMPI JUMPDEST PUSH0 DUP1 REVERT JUMPDEST PUSH3 0x9E PUSH3 0x19D JUMP JUMPDEST PUSH1 0x40 MLOAD PUSH3 0xAD SWAP2 SWAP1 PUSH3 0x583 JUMP JUMPDEST PUSH1 0x40 MLOAD DUP1 SWAP2 SUB SWAP1 RETURN JUMPDEST PUSH3 0x9E PUSH3 0xC7 CALLDATASIZE PUSH1 0x4 PUSH3 0x5ED JUMP JUMPDEST PUSH3 0x1FE JUMP JUMPDEST PUSH3 0x9E PUSH3 0xDE CALLDATASIZE PUSH1 0x4 PUSH3 0x610 JUMP JUMPDEST PUSH3 0x273 JUMP JUMPDEST PUSH3 0x10F PUSH3 0xF5 CALLDATASIZE PUSH1 0x4 PUSH3 0x5ED JUMP JUMPDEST PUSH1 0x2 PUSH1 0x20 MSTORE PUSH0 SWAP1 DUP2 MSTORE PUSH1 0x40 SWAP1 KECCAK256 SLOAD PUSH1 0x1 PUSH1 0x1 PUSH1 0xA0 SHL SUB AND DUP2 JUMP JUMPDEST PUSH1 0x40 MLOAD PUSH1 0x1 PUSH1 0x1 PUSH1 0xA0 SHL SUB SWAP1 SWAP2 AND DUP2 MSTORE PUSH1 0x20 ADD PUSH3 0xAD JUMP JUMPDEST PUSH3 0x10F PUSH3 0x139 CALLDATASIZE PUSH1 0x4 PUSH3 0x679 JUMP JUMPDEST PUSH3 0x39C JUMP JUMPDEST PUSH3 0x10F PUSH3 0x150 CALLDATASIZE PUSH1 0x4 PUSH3 0x71D JUMP JUMPDEST PUSH3 0x504 JUMP JUMPDEST PUSH0 SLOAD PUSH1 0x40 MLOAD SWAP1 DUP2 MSTORE PUSH1 0x20 ADD PUSH3 0xAD JUMP JUMPDEST PUSH3 0x18C PUSH3 0x178 CALLDATASIZE PUSH1 0x4 PUSH3 0x5ED JUMP JUMPDEST PUSH1 0x3 PUSH1 0x20 MSTORE PUSH0 SWAP1 DUP2 MSTORE PUSH1 0x40 SWAP1 KECCAK256 SLOAD PUSH1 0xFF AND DUP2 JUMP JUMPDEST PUSH1 0x40 MLOAD SWAP1 ISZERO ISZERO DUP2 MSTORE PUSH1 0x20 ADD PUSH3 0xAD JUMP JUMPDEST PUSH1 0x60 PUSH0 DUP1 SLOAD DUP1 PUSH1 0x20 MUL PUSH1 0x20 ADD PUSH1 0x40 MLOAD SWAP1 DUP2 ADD PUSH1 0x40 MSTORE DUP1 SWAP3 SWAP2 SWAP1 DUP2 DUP2 MSTORE PUSH1 0x20 ADD DUP3 DUP1 SLOAD DUP1 ISZERO PUSH3 0x1F4 JUMPI PUSH1 0x20 MUL DUP3 ADD SWAP2 SWAP1 PUSH0 MSTORE PUSH1 0x20 PUSH0 KECCAK256 SWAP1 JUMPDEST DUP2 SLOAD PUSH1 0x1 PUSH1 0x1 PUSH1 0xA0 SHL SUB AND DUP2 MSTORE PUSH1 0x1 SWAP1 SWAP2 ADD SWAP1 PUSH1 0x20 ADD DUP1 DUP4 GT PUSH3 0x1D5 JUMPI JUMPDEST POP POP POP POP POP SWAP1 POP SWAP1 JUMP JUMPDEST PUSH1 0x1 PUSH1 0x1 PUSH1 0xA0 SHL SUB DUP2 AND PUSH0 SWAP1 DUP2 MSTORE PUSH1 0x1 PUSH1 0x20 SWAP1 DUP2 MSTORE PUSH1 0x40 SWAP2 DUP3 SWAP1 KECCAK256 DUP1 SLOAD DUP4 MLOAD DUP2 DUP5 MUL DUP2 ADD DUP5 ADD SWAP1 SWAP5 MSTORE DUP1 DUP5 MSTORE PUSH1 0x60 SWAP4 SWAP3 DUP4 ADD DUP3 DUP3 DUP1 ISZERO PUSH3 0x267 JUMPI PUSH1 0x20 MUL DUP3 ADD SWAP2 SWAP1 PUSH0 MSTORE PUSH1 0x20 PUSH0 KECCAK256 SWAP1 JUMPDEST DUP2 SLOAD PUSH1 0x1 PUSH1 0x1 PUSH1 0xA0 SHL SUB AND DUP2 MSTORE PUSH1 0x1 SWAP1 SWAP2 ADD SWAP1 PUSH1 0x20 ADD DUP1 DUP4 GT PUSH3 0x248 JUMPI JUMPDEST POP POP POP POP POP SWAP1 POP SWAP2 SWAP1 POP JUMP JUMPDEST PUSH0 SLOAD PUSH1 0x60 SWAP1 DUP1 DUP5 LT PUSH3 0x296 JUMPI POP POP PUSH1 0x40 DUP1 MLOAD PUSH0 DUP2 MSTORE PUSH1 0x20 DUP2 ADD SWAP1 SWAP2 MSTORE PUSH3 0x396 JUMP JUMPDEST PUSH0 PUSH3 0x2A3 DUP5 DUP7 PUSH3 0x75D JUMP JUMPDEST SWAP1 POP DUP2 DUP2 GT ISZERO PUSH3 0x2B1 JUMPI POP DUP1 JUMPDEST PUSH0 PUSH3 0x2BE DUP7 DUP4 PUSH3 0x773 JUMP JUMPDEST SWAP1 POP DUP1 PUSH8 0xFFFFFFFFFFFFFFFF DUP2 GT ISZERO PUSH3 0x2DC JUMPI PUSH3 0x2DC PUSH3 0x735 JUMP JUMPDEST PUSH1 0x40 MLOAD SWAP1 DUP1 DUP3 MSTORE DUP1 PUSH1 0x20 MUL PUSH1 0x20 ADD DUP3 ADD PUSH1 0x40 MSTORE DUP1 ISZERO PUSH3 0x306 JUMPI DUP2 PUSH1 0x20 ADD PUSH1 0x20 DUP3 MUL DUP1 CALLDATASIZE DUP4 CALLDATACOPY ADD SWAP1 POP JUMPDEST POP SWAP4 POP PUSH0 JUMPDEST DUP2 DUP2 LT ISZERO PUSH3 0x391 JUMPI PUSH0 PUSH3 0x321 DUP3 DUP10 PUSH3 0x75D JUMP JUMPDEST DUP2 SLOAD DUP2 LT PUSH3 0x334 JUMPI PUSH3 0x334 PUSH3 0x789 JUMP JUMPDEST SWAP1 PUSH0 MSTORE PUSH1 0x20 PUSH0 KECCAK256 ADD PUSH0 SWAP1 SLOAD SWAP1 PUSH2 0x100 EXP SWAP1 DIV PUSH1 0x1 PUSH1 0x1 PUSH1 0xA0 SHL SUB AND DUP6 DUP3 DUP2 MLOAD DUP2 LT PUSH3 0x364 JUMPI PUSH3 0x364 PUSH3 0x789 JUMP JUMPDEST PUSH1 0x1 PUSH1 0x1 PUSH1 0xA0 SHL SUB SWAP1 SWAP3 AND PUSH1 0x20 SWAP3 DUP4 MUL SWAP2 SWAP1 SWAP2 ADD SWAP1 SWAP2 ADD MSTORE DUP1 PUSH3 0x388 DUP2 PUSH3 0x79D JUMP JUMPDEST SWAP2 POP POP PUSH3 0x30B JUMP JUMPDEST POP POP POP POP JUMPDEST SWAP3 SWAP2 POP POP JUMP JUMPDEST PUSH0 DUP1 PUSH1 0x1 PUSH1 0x1 PUSH1 0xA0 SHL SUB DUP4 AND ISZERO PUSH3 0x3B5 JUMPI DUP3 PUSH3 0x3B7 JUMP JUMPDEST CALLER JUMPDEST SWAP1 POP DUP9 DUP9 DUP9 DUP9 DUP9 DUP9 DUP7 PUSH1 0x40 MLOAD PUSH3 0x3CE SWAP1 PUSH3 0x575 JUMP JUMPDEST PUSH3 0x3E0 SWAP8 SWAP7 SWAP6 SWAP5 SWAP4 SWAP3 SWAP2 SWAP1 PUSH3 0x7E0 JUMP JUMPDEST PUSH1 0x40 MLOAD DUP1 SWAP2 SUB SWAP1 PUSH0 CREATE DUP1 ISZERO DUP1 ISZERO PUSH3 0x3FA JUMPI RETURNDATASIZE PUSH0 DUP1 RETURNDATACOPY RETURNDATASIZE PUSH0 REVERT JUMPDEST POP PUSH1 0x1 PUSH1 0x1 PUSH1 0xA0 SHL SUB DUP1 DUP3 AND PUSH0 DUP2 DUP2 MSTORE PUSH1 0x3 PUSH1 0x20 SWAP1 DUP2 MSTORE PUSH1 0x40 DUP1 DUP4 KECCAK256 DUP1 SLOAD PUSH1 0xFF NOT AND PUSH1 0x1 SWAP1 DUP2 OR SWAP1 SWAP2 SSTORE PUSH1 0x2 DUP4 MSTORE DUP2 DUP5 KECCAK256 DUP1 SLOAD SWAP7 DUP10 AND PUSH1 0x1 PUSH1 0x1 PUSH1 0xA0 SHL SUB NOT SWAP8 DUP9 AND DUP2 OR SWAP1 SWAP2 SSTORE DUP1 DUP6 MSTORE DUP2 DUP5 MSTORE SWAP2 DUP5 KECCAK256 DUP1 SLOAD DUP1 DUP4 ADD DUP3 SSTORE SWAP1 DUP6 MSTORE SWAP3 DUP5 KECCAK256 SWAP1 SWAP3 ADD DUP1 SLOAD DUP7 AND DUP6 OR SWAP1 SSTORE DUP3 SLOAD DUP1 DUP4 ADD DUP5 SSTORE DUP4 DUP1 MSTORE PUSH32 0x290DECD9548B62A8D60345A988386FC84BA6BC95484008F6362F93160EF3E563 ADD DUP1 SLOAD SWAP1 SWAP6 AND DUP5 OR SWAP1 SWAP5 SSTORE SWAP1 SLOAD SWAP4 SWAP6 POP SWAP2 SWAP3 SWAP1 SWAP2 PUSH32 0x813BEFB236CB0E263B6572F828C20A7B124329BCF797735AD2C7518C4E470C2 SWAP2 DUP14 SWAP2 DUP14 SWAP2 DUP14 SWAP2 DUP14 SWAP2 DUP14 SWAP2 DUP14 SWAP2 PUSH3 0x4DB SWAP2 SWAP1 PUSH3 0x773 JUMP JUMPDEST PUSH1 0x40 MLOAD PUSH3 0x4F0 SWAP8 SWAP7 SWAP6 SWAP5 SWAP4 SWAP3 SWAP2 SWAP1 PUSH3 0x836 JUMP JUMPDEST PUSH1 0x40 MLOAD DUP1 SWAP2 SUB SWAP1 LOG3 POP SWAP8 SWAP7 POP POP POP POP POP POP POP JUMP JUMPDEST PUSH0 DUP1 SLOAD DUP3 LT PUSH3 0x546 JUMPI PUSH1 0x40 MLOAD PUSH3 0x461BCD PUSH1 0xE5 SHL DUP2 MSTORE PUSH1 0x20 PUSH1 0x4 DUP3 ADD MSTORE PUSH1 0x9 PUSH1 0x24 DUP3 ADD MSTORE PUSH9 0x34B73232BC1037B7B1 PUSH1 0xB9 SHL PUSH1 0x44 DUP3 ADD MSTORE PUSH1 0x64 ADD PUSH1 0x40 MLOAD DUP1 SWAP2 SUB SWAP1 REVERT JUMPDEST PUSH0 DUP3 DUP2 SLOAD DUP2 LT PUSH3 0x55B JUMPI PUSH3 0x55B PUSH3 0x789 JUMP JUMPDEST PUSH0 SWAP2 DUP3 MSTORE PUSH1 0x20 SWAP1 SWAP2 KECCAK256 ADD SLOAD PUSH1 0x1 PUSH1 0x1 PUSH1 0xA0 SHL SUB AND SWAP3 SWAP2 POP POP JUMP JUMPDEST PUSH2 0xAF7 DUP1 PUSH3 0x884 DUP4 CODECOPY ADD SWAP1 JUMP JUMPDEST PUSH1 0x20 DUP1 DUP3 MSTORE DUP3 MLOAD DUP3 DUP3 ADD DUP2 SWAP1 MSTORE PUSH0 SWAP2 SWAP1 DUP5 DUP3 ADD SWAP1 PUSH1 0x40 DUP6 ADD SWAP1 DUP5 JUMPDEST DUP2 DUP2 LT ISZERO PUSH3 0x5C5 JUMPI DUP4 MLOAD PUSH1 0x1 PUSH1 0x1 PUSH1 0xA0 SHL SUB AND DUP4 MSTORE SWAP3 DUP5 ADD SWAP3 SWAP2 DUP5 ADD SWAP2 PUSH1 0x1 ADD PUSH3 0x59E JUMP JUMPDEST POP SWAP1 SWAP7 SWAP6 POP POP POP POP POP POP JUMP JUMPDEST DUP1 CALLDATALOAD PUSH1 0x1 PUSH1 0x1 PUSH1 0xA0 SHL SUB DUP2 AND DUP2 EQ PUSH3 0x5E8 JUMPI PUSH0 DUP1 REVERT JUMPDEST SWAP2 SWAP1 POP JUMP JUMPDEST PUSH0 PUSH1 0x20 DUP3 DUP5 SUB SLT ISZERO PUSH3 0x5FE JUMPI PUSH0 DUP1 REVERT JUMPDEST PUSH3 0x609 DUP3 PUSH3 0x5D1 JUMP JUMPDEST SWAP4 SWAP3 POP POP POP JUMP JUMPDEST PUSH0 DUP1 PUSH1 0x40 DUP4 DUP6 SUB SLT ISZERO PUSH3 0x622 JUMPI PUSH0 DUP1 REVERT JUMPDEST POP POP DUP1 CALLDATALOAD SWAP3 PUSH1 0x20 SWAP1 SWAP2 ADD CALLDATALOAD SWAP2 POP JUMP JUMPDEST PUSH0 DUP1 DUP4 PUSH1 0x1F DUP5 ADD SLT PUSH3 0x642 JUMPI PUSH0 DUP1 REVERT JUMPDEST POP DUP2 CALLDATALOAD PUSH8 0xFFFFFFFFFFFFFFFF DUP2 GT ISZERO PUSH3 0x65A JUMPI PUSH0 DUP1 REVERT JUMPDEST PUSH1 0x20 DUP4 ADD SWAP2 POP DUP4 PUSH1 0x20 DUP3 DUP6 ADD ADD GT ISZERO PUSH3 0x672 JUMPI PUSH0 DUP1 REVERT JUMPDEST SWAP3 POP SWAP3 SWAP1 POP JUMP JUMPDEST PUSH0 DUP1 PUSH0 DUP1 PUSH0 DUP1 PUSH0 PUSH1 0xA0 DUP9 DUP11 SUB SLT ISZERO PUSH3 0x690 JUMPI PUSH0 DUP1 REVERT JUMPDEST DUP8 CALLDATALOAD PUSH8 0xFFFFFFFFFFFFFFFF DUP1 DUP3 GT ISZERO PUSH3 0x6A8 JUMPI PUSH0 DUP1 REVERT JUMPDEST PUSH3 0x6B6 DUP12 DUP4 DUP13 ADD PUSH3 0x631 JUMP JUMPDEST SWAP1 SWAP10 POP SWAP8 POP PUSH1 0x20 DUP11 ADD CALLDATALOAD SWAP2 POP DUP1 DUP3 GT ISZERO PUSH3 0x6CF JUMPI PUSH0 DUP1 REVERT JUMPDEST POP PUSH3 0x6DE DUP11 DUP3 DUP12 ADD PUSH3 0x631 JUMP JUMPDEST SWAP1 SWAP7 POP SWAP5 POP POP PUSH1 0x40 DUP9 ADD CALLDATALOAD PUSH1 0xFF DUP2 AND DUP2 EQ PUSH3 0x6F8 JUMPI PUSH0 DUP1 REVERT JUMPDEST SWAP3 POP PUSH1 0x60 DUP9 ADD CALLDATALOAD SWAP2 POP PUSH3 0x70F PUSH1 0x80 DUP10 ADD PUSH3 0x5D1 JUMP JUMPDEST SWAP1 POP SWAP3 SWAP6 SWAP9 SWAP2 SWAP5 SWAP8 POP SWAP3 SWAP6 POP JUMP JUMPDEST PUSH0 PUSH1 0x20 DUP3 DUP5 SUB SLT ISZERO PUSH3 0x72E JUMPI PUSH0 DUP1 REVERT JUMPDEST POP CALLDATALOAD SWAP2 SWAP1 POP JUMP JUMPDEST PUSH4 0x4E487B71 PUSH1 0xE0 SHL PUSH0 MSTORE PUSH1 0x41 PUSH1 0x4 MSTORE PUSH1 0x24 PUSH0 REVERT JUMPDEST PUSH4 0x4E487B71 PUSH1 0xE0 SHL PUSH0 MSTORE PUSH1 0x11 PUSH1 0x4 MSTORE PUSH1 0x24 PUSH0 REVERT JUMPDEST DUP1 DUP3 ADD DUP1 DUP3 GT ISZERO PUSH3 0x396 JUMPI PUSH3 0x396 PUSH3 0x749 JUMP JUMPDEST DUP2 DUP2 SUB DUP2 DUP2 GT ISZERO PUSH3 0x396 JUMPI PUSH3 0x396 PUSH3 0x749 JUMP JUMPDEST PUSH4 0x4E487B71 PUSH1 0xE0 SHL PUSH0 MSTORE PUSH1 0x32 PUSH1 0x4 MSTORE PUSH1 0x24 PUSH0 REVERT JUMPDEST PUSH0 PUSH1 0x1 DUP3 ADD PUSH3 0x7B1 JUMPI PUSH3 0x7B1 PUSH3 0x749 JUMP JUMPDEST POP PUSH1 0x1 ADD SWAP1 JUMP JUMPDEST DUP2 DUP4 MSTORE DUP2 DUP2 PUSH1 0x20 DUP6 ADD CALLDATACOPY POP PUSH0 DUP3 DUP3 ADD PUSH1 0x20 SWAP1 DUP2 ADD SWAP2 SWAP1 SWAP2 MSTORE PUSH1 0x1F SWAP1 SWAP2 ADD PUSH1 0x1F NOT AND SWAP1 SWAP2 ADD ADD SWAP1 JUMP JUMPDEST PUSH1 0xA0 DUP2 MSTORE PUSH0 PUSH3 0x7F5 PUSH1 0xA0 DUP4 ADD DUP10 DUP12 PUSH3 0x7B8 JUMP JUMPDEST DUP3 DUP2 SUB PUSH1 0x20 DUP5 ADD MSTORE PUSH3 0x80A DUP2 DUP9 DUP11 PUSH3 0x7B8 JUMP JUMPDEST PUSH1 0xFF SWAP7 SWAP1 SWAP7 AND PUSH1 0x40 DUP5 ADD MSTORE POP POP PUSH1 0x60 DUP2 ADD SWAP3 SWAP1 SWAP3 MSTORE PUSH1 0x1 PUSH1 0x1 PUSH1 0xA0 SHL SUB AND PUSH1 0x80 SWAP1 SWAP2 ADD MSTORE SWAP5 SWAP4 POP POP POP POP JUMP JUMPDEST PUSH1 0xA0 DUP2 MSTORE PUSH0 PUSH3 0x84B PUSH1 0xA0 DUP4 ADD DUP10 DUP12 PUSH3 0x7B8 JUMP JUMPDEST DUP3 DUP2 SUB PUSH1 0x20 DUP5 ADD MSTORE PUSH3 0x860 DUP2 DUP9 DUP11 PUSH3 0x7B8 JUMP JUMPDEST PUSH1 0xFF SWAP7 SWAP1 SWAP7 AND PUSH1 0x40 DUP5 ADD MSTORE POP POP PUSH1 0x60 DUP2 ADD SWAP3 SWAP1 SWAP3 MSTORE PUSH1 0x80 SWAP1 SWAP2 ADD MSTORE SWAP5 SWAP4 POP POP POP POP JUMP INVALID PUSH1 0x80 PUSH1 0x40 MSTORE CALLVALUE DUP1 ISZERO PUSH3 0x10 JUMPI PUSH0 DUP1 REVERT JUMPDEST POP PUSH1 0x40 MLOAD PUSH3 0xAF7 CODESIZE SUB DUP1 PUSH3 0xAF7 DUP4 CODECOPY DUP2 ADD PUSH1 0x40 DUP2 SWAP1 MSTORE PUSH3 0x33 SWAP2 PUSH3 0x25C JUMP JUMPDEST PUSH1 0x1 PUSH1 0x1 PUSH1 0xA0 SHL SUB DUP2 AND PUSH3 0x79 JUMPI PUSH1 0x40 MLOAD PUSH3 0x461BCD PUSH1 0xE5 SHL DUP2 MSTORE PUSH1 0x20 PUSH1 0x4 DUP3 ADD MSTORE PUSH1 0x7 PUSH1 0x24 DUP3 ADD MSTORE PUSH7 0x4F776E65723D3 PUSH1 0xCC SHL PUSH1 0x44 DUP3 ADD MSTORE PUSH1 0x64 ADD JUMPDEST PUSH1 0x40 MLOAD DUP1 SWAP2 SUB SWAP1 REVERT JUMPDEST PUSH0 PUSH3 0x86 DUP7 DUP3 PUSH3 0x390 JUMP JUMPDEST POP PUSH1 0x1 PUSH3 0x95 DUP6 DUP3 PUSH3 0x390 JUMP JUMPDEST POP PUSH1 0x2 DUP1 SLOAD PUSH1 0xFF NOT AND PUSH1 0xFF DUP6 AND OR SWAP1 SSTORE PUSH3 0xB1 DUP2 DUP4 PUSH3 0xBC JUMP JUMPDEST POP POP POP POP POP PUSH3 0x47E JUMP JUMPDEST PUSH1 0x1 PUSH1 0x1 PUSH1 0xA0 SHL SUB DUP3 AND PUSH3 0x114 JUMPI PUSH1 0x40 MLOAD PUSH3 0x461BCD PUSH1 0xE5 SHL DUP2 MSTORE PUSH1 0x20 PUSH1 0x4 DUP3 ADD MSTORE PUSH1 0x13 PUSH1 0x24 DUP3 ADD MSTORE PUSH32 0x45524332303A206D696E7420746F207A65726F00000000000000000000000000 PUSH1 0x44 DUP3 ADD MSTORE PUSH1 0x64 ADD PUSH3 0x70 JUMP JUMPDEST DUP1 PUSH1 0x3 PUSH0 DUP3 DUP3 SLOAD PUSH3 0x127 SWAP2 SWAP1 PUSH3 0x458 JUMP JUMPDEST SWAP1 SWAP2 SSTORE POP POP PUSH1 0x1 PUSH1 0x1 PUSH1 0xA0 SHL SUB DUP3 AND PUSH0 SWAP1 DUP2 MSTORE PUSH1 0x4 PUSH1 0x20 MSTORE PUSH1 0x40 DUP2 KECCAK256 DUP1 SLOAD DUP4 SWAP3 SWAP1 PUSH3 0x155 SWAP1 DUP5 SWAP1 PUSH3 0x458 JUMP JUMPDEST SWAP1 SWAP2 SSTORE POP POP PUSH1 0x40 MLOAD DUP2 DUP2 MSTORE PUSH1 0x1 PUSH1 0x1 PUSH1 0xA0 SHL SUB DUP4 AND SWAP1 PUSH0 SWAP1 PUSH32 0xDDF252AD1BE2C89B69C2B068FC378DAA952BA7F163C4A11628F55A4DF523B3EF SWAP1 PUSH1 0x20 ADD PUSH1 0x40 MLOAD DUP1 SWAP2 SUB SWAP1 LOG3 POP POP JUMP JUMPDEST PUSH4 0x4E487B71 PUSH1 0xE0 SHL PUSH0 MSTORE PUSH1 0x41 PUSH1 0x4 MSTORE PUSH1 0x24 PUSH0 REVERT JUMPDEST PUSH0 DUP3 PUSH1 0x1F DUP4 ADD SLT PUSH3 0x1C2 JUMPI PUSH0 DUP1 REVERT JUMPDEST DUP2 MLOAD PUSH1 0x1 PUSH1 0x1 PUSH1 0x40 SHL SUB DUP1 DUP3 GT ISZERO PUSH3 0x1DF JUMPI PUSH3 0x1DF PUSH3 0x19E JUMP JUMPDEST PUSH1 0x40 MLOAD PUSH1 0x1F DUP4 ADD PUSH1 0x1F NOT SWAP1 DUP2 AND PUSH1 0x3F ADD AND DUP2 ADD SWAP1 DUP3 DUP3 GT DUP2 DUP4 LT OR ISZERO PUSH3 0x20A JUMPI PUSH3 0x20A PUSH3 0x19E JUMP JUMPDEST DUP2 PUSH1 0x40 MSTORE DUP4 DUP2 MSTORE PUSH1 0x20 SWAP3 POP DUP7 DUP4 DUP6 DUP9 ADD ADD GT ISZERO PUSH3 0x226 JUMPI PUSH0 DUP1 REVERT JUMPDEST PUSH0 SWAP2 POP JUMPDEST DUP4 DUP3 LT ISZERO PUSH3 0x249 JUMPI DUP6 DUP3 ADD DUP4 ADD MLOAD DUP2 DUP4 ADD DUP5 ADD MSTORE SWAP1 DUP3 ADD SWAP1 PUSH3 0x22A JUMP JUMPDEST PUSH0 SWAP4 DUP2 ADD SWAP1 SWAP3 ADD SWAP3 SWAP1 SWAP3 MSTORE SWAP5 SWAP4 POP POP POP POP JUMP JUMPDEST PUSH0 DUP1 PUSH0 DUP1 PUSH0 PUSH1 0xA0 DUP7 DUP9 SUB SLT ISZERO PUSH3 0x271 JUMPI PUSH0 DUP1 REVERT JUMPDEST DUP6 MLOAD PUSH1 0x1 PUSH1 0x1 PUSH1 0x40 SHL SUB DUP1 DUP3 GT ISZERO PUSH3 0x288 JUMPI PUSH0 DUP1 REVERT JUMPDEST PUSH3 0x296 DUP10 DUP4 DUP11 ADD PUSH3 0x1B2 JUMP JUMPDEST SWAP7 POP PUSH1 0x20 DUP9 ADD MLOAD SWAP2 POP DUP1 DUP3 GT ISZERO PUSH3 0x2AC JUMPI PUSH0 DUP1 REVERT JUMPDEST POP PUSH3 0x2BB DUP9 DUP3 DUP10 ADD PUSH3 0x1B2 JUMP JUMPDEST SWAP5 POP POP PUSH1 0x40 DUP7 ADD MLOAD PUSH1 0xFF DUP2 AND DUP2 EQ PUSH3 0x2D2 JUMPI PUSH0 DUP1 REVERT JUMPDEST PUSH1 0x60 DUP8 ADD MLOAD PUSH1 0x80 DUP9 ADD MLOAD SWAP2 SWAP5 POP SWAP3 POP PUSH1 0x1 PUSH1 0x1 PUSH1 0xA0 SHL SUB DUP2 AND DUP2 EQ PUSH3 0x2F6 JUMPI PUSH0 DUP1 REVERT JUMPDEST DUP1 SWAP2 POP POP SWAP3 SWAP6 POP SWAP3 SWAP6 SWAP1 SWAP4 POP JUMP JUMPDEST PUSH1 0x1 DUP2 DUP2 SHR SWAP1 DUP3 AND DUP1 PUSH3 0x319 JUMPI PUSH1 0x7F DUP3 AND SWAP2 POP JUMPDEST PUSH1 0x20 DUP3 LT DUP2 SUB PUSH3 0x338 JUMPI PUSH4 0x4E487B71 PUSH1 0xE0 SHL PUSH0 MSTORE PUSH1 0x22 PUSH1 0x4 MSTORE PUSH1 0x24 PUSH0 REVERT JUMPDEST POP SWAP2 SWAP1 POP JUMP JUMPDEST PUSH1 0x1F DUP3 GT ISZERO PUSH3 0x38B JUMPI PUSH0 DUP2 DUP2 MSTORE PUSH1 0x20 DUP2 KECCAK256 PUSH1 0x1F DUP6 ADD PUSH1 0x5 SHR DUP2 ADD PUSH1 0x20 DUP7 LT ISZERO PUSH3 0x366 JUMPI POP DUP1 JUMPDEST PUSH1 0x1F DUP6 ADD PUSH1 0x5 SHR DUP3 ADD SWAP2 POP JUMPDEST DUP2 DUP2 LT ISZERO PUSH3 0x387 JUMPI DUP3 DUP2 SSTORE PUSH1 0x1 ADD PUSH3 0x372 JUMP JUMPDEST POP POP POP JUMPDEST POP POP POP JUMP JUMPDEST DUP2 MLOAD PUSH1 0x1 PUSH1 0x1 PUSH1 0x40 SHL SUB DUP2 GT ISZERO PUSH3 0x3AC JUMPI PUSH3 0x3AC PUSH3 0x19E JUMP JUMPDEST PUSH3 0x3C4 DUP2 PUSH3 0x3BD DUP5 SLOAD PUSH3 0x304 JUMP JUMPDEST DUP5 PUSH3 0x33E JUMP JUMPDEST PUSH1 0x20 DUP1 PUSH1 0x1F DUP4 GT PUSH1 0x1 DUP2 EQ PUSH3 0x3FA JUMPI PUSH0 DUP5 ISZERO PUSH3 0x3E2 JUMPI POP DUP6 DUP4 ADD MLOAD JUMPDEST PUSH0 NOT PUSH1 0x3 DUP7 SWAP1 SHL SHR NOT AND PUSH1 0x1 DUP6 SWAP1 SHL OR DUP6 SSTORE PUSH3 0x387 JUMP JUMPDEST PUSH0 DUP6 DUP2 MSTORE PUSH1 0x20 DUP2 KECCAK256 PUSH1 0x1F NOT DUP7 AND SWAP2 JUMPDEST DUP3 DUP2 LT ISZERO PUSH3 0x42A JUMPI DUP9 DUP7 ADD MLOAD DUP3 SSTORE SWAP5 DUP5 ADD SWAP5 PUSH1 0x1 SWAP1 SWAP2 ADD SWAP1 DUP5 ADD PUSH3 0x409 JUMP JUMPDEST POP DUP6 DUP3 LT ISZERO PUSH3 0x448 JUMPI DUP8 DUP6 ADD MLOAD PUSH0 NOT PUSH1 0x3 DUP9 SWAP1 SHL PUSH1 0xF8 AND SHR NOT AND DUP2 SSTORE JUMPDEST POP POP POP POP POP PUSH1 0x1 SWAP1 DUP2 SHL ADD SWAP1 SSTORE POP JUMP JUMPDEST DUP1 DUP3 ADD DUP1 DUP3 GT ISZERO PUSH3 0x478 JUMPI PUSH4 0x4E487B71 PUSH1 0xE0 SHL PUSH0 MSTORE PUSH1 0x11 PUSH1 0x4 MSTORE PUSH1 0x24 PUSH0 REVERT JUMPDEST SWAP3 SWAP2 POP POP JUMP JUMPDEST PUSH2 0x66B DUP1 PUSH3 0x48C PUSH0 CODECOPY PUSH0 RETURN INVALID PUSH1 0x80 PUSH1 0x40 MSTORE CALLVALUE DUP1 ISZERO PUSH2 0xF JUMPI PUSH0 DUP1 REVERT JUMPDEST POP PUSH1 0x4 CALLDATASIZE LT PUSH2 0x90 JUMPI PUSH0 CALLDATALOAD PUSH1 0xE0 SHR DUP1 PUSH4 0x313CE567 GT PUSH2 0x63 JUMPI DUP1 PUSH4 0x313CE567 EQ PUSH2 0xFF JUMPI DUP1 PUSH4 0x70A08231 EQ PUSH2 0x114 JUMPI DUP1 PUSH4 0x95D89B41 EQ PUSH2 0x133 JUMPI DUP1 PUSH4 0xA9059CBB EQ PUSH2 0x13B JUMPI DUP1 PUSH4 0xDD62ED3E EQ PUSH2 0x14E JUMPI PUSH0 DUP1 REVERT JUMPDEST DUP1 PUSH4 0x6FDDE03 EQ PUSH2 0x94 JUMPI DUP1 PUSH4 0x95EA7B3 EQ PUSH2 0xB2 JUMPI DUP1 PUSH4 0x18160DDD EQ PUSH2 0xD5 JUMPI DUP1 PUSH4 0x23B872DD EQ PUSH2 0xEC JUMPI JUMPDEST PUSH0 DUP1 REVERT JUMPDEST PUSH2 0x9C PUSH2 0x178 JUMP JUMPDEST PUSH1 0x40 MLOAD PUSH2 0xA9 SWAP2 SWAP1 PUSH2 0x4E5 JUMP JUMPDEST PUSH1 0x40 MLOAD DUP1 SWAP2 SUB SWAP1 RETURN JUMPDEST PUSH2 0xC5 PUSH2 0xC0 CALLDATASIZE PUSH1 0x4 PUSH2 0x54B JUMP JUMPDEST PUSH2 0x207 JUMP JUMPDEST PUSH1 0x40 MLOAD SWAP1 ISZERO ISZERO DUP2 MSTORE PUSH1 0x20 ADD PUSH2 0xA9 JUMP JUMPDEST PUSH2 0xDE PUSH1 0x3 SLOAD DUP2 JUMP JUMPDEST PUSH1 0x40 MLOAD SWAP1 DUP2 MSTORE PUSH1 0x20 ADD PUSH2 0xA9 JUMP JUMPDEST PUSH2 0xC5 PUSH2 0xFA CALLDATASIZE PUSH1 0x4 PUSH2 0x573 JUMP JUMPDEST PUSH2 0x21C JUMP JUMPDEST PUSH1 0x2 SLOAD PUSH1 0x40 MLOAD PUSH1 0xFF SWAP1 SWAP2 AND DUP2 MSTORE PUSH1 0x20 ADD PUSH2 0xA9 JUMP JUMPDEST PUSH2 0xDE PUSH2 0x122 CALLDATASIZE PUSH1 0x4 PUSH2 0x5AC JUMP JUMPDEST PUSH1 0x4 PUSH1 0x20 MSTORE PUSH0 SWAP1 DUP2 MSTORE PUSH1 0x40 SWAP1 KECCAK256 SLOAD DUP2 JUMP JUMPDEST PUSH2 0x9C PUSH2 0x2DA JUMP JUMPDEST PUSH2 0xC5 PUSH2 0x149 CALLDATASIZE PUSH1 0x4 PUSH2 0x54B JUMP JUMPDEST PUSH2 0x2E9 JUMP JUMPDEST PUSH2 0xDE PUSH2 0x15C CALLDATASIZE PUSH1 0x4 PUSH2 0x5CC JUMP JUMPDEST PUSH1 0x5 PUSH1 0x20 SWAP1 DUP2 MSTORE PUSH0 SWAP3 DUP4 MSTORE PUSH1 0x40 DUP1 DUP5 KECCAK256 SWAP1 SWAP2 MSTORE SWAP1 DUP3 MSTORE SWAP1 KECCAK256 SLOAD DUP2 JUMP JUMPDEST PUSH1 0x60 PUSH0 DUP1 SLOAD PUSH2 0x186 SWAP1 PUSH2 0x5FD JUMP JUMPDEST DUP1 PUSH1 0x1F ADD PUSH1 0x20 DUP1 SWAP2 DIV MUL PUSH1 0x20 ADD PUSH1 0x40 MLOAD SWAP1 DUP2 ADD PUSH1 0x40 MSTORE DUP1 SWAP3 SWAP2 SWAP1 DUP2 DUP2 MSTORE PUSH1 0x20 ADD DUP3 DUP1 SLOAD PUSH2 0x1B2 SWAP1 PUSH2 0x5FD JUMP JUMPDEST DUP1 ISZERO PUSH2 0x1FD JUMPI DUP1 PUSH1 0x1F LT PUSH2 0x1D4 JUMPI PUSH2 0x100 DUP1 DUP4 SLOAD DIV MUL DUP4 MSTORE SWAP2 PUSH1 0x20 ADD SWAP2 PUSH2 0x1FD JUMP JUMPDEST DUP3 ADD SWAP2 SWAP1 PUSH0 MSTORE PUSH1 0x20 PUSH0 KECCAK256 SWAP1 JUMPDEST DUP2 SLOAD DUP2 MSTORE SWAP1 PUSH1 0x1 ADD SWAP1 PUSH1 0x20 ADD DUP1 DUP4 GT PUSH2 0x1E0 JUMPI DUP3 SWAP1 SUB PUSH1 0x1F AND DUP3 ADD SWAP2 JUMPDEST POP POP POP POP POP SWAP1 POP SWAP1 JUMP JUMPDEST PUSH0 PUSH2 0x213 CALLER DUP5 DUP5 PUSH2 0x2F5 JUMP JUMPDEST POP PUSH1 0x1 SWAP3 SWAP2 POP POP JUMP JUMPDEST PUSH1 0x1 PUSH1 0x1 PUSH1 0xA0 SHL SUB DUP4 AND PUSH0 SWAP1 DUP2 MSTORE PUSH1 0x5 PUSH1 0x20 SWAP1 DUP2 MSTORE PUSH1 0x40 DUP1 DUP4 KECCAK256 CALLER DUP5 MSTORE SWAP1 SWAP2 MSTORE DUP2 KECCAK256 SLOAD PUSH0 NOT DUP2 EQ PUSH2 0x2C4 JUMPI DUP3 DUP2 LT ISZERO PUSH2 0x29C JUMPI PUSH1 0x40 MLOAD PUSH3 0x461BCD PUSH1 0xE5 SHL DUP2 MSTORE PUSH1 0x20 PUSH1 0x4 DUP3 ADD MSTORE PUSH1 0x1D PUSH1 0x24 DUP3 ADD MSTORE PUSH32 0x45524332303A20696E73756666696369656E7420616C6C6F77616E6365000000 PUSH1 0x44 DUP3 ADD MSTORE PUSH1 0x64 ADD JUMPDEST PUSH1 0x40 MLOAD DUP1 SWAP2 SUB SWAP1 REVERT JUMPDEST PUSH1 0x1 PUSH1 0x1 PUSH1 0xA0 SHL SUB DUP6 AND PUSH0 SWAP1 DUP2 MSTORE PUSH1 0x5 PUSH1 0x20 SWAP1 DUP2 MSTORE PUSH1 0x40 DUP1 DUP4 KECCAK256 CALLER DUP5 MSTORE SWAP1 SWAP2 MSTORE SWAP1 KECCAK256 DUP4 DUP3 SUB SWAP1 SSTORE JUMPDEST PUSH2 0x2CF DUP6 DUP6 DUP6 PUSH2 0x3B7 JUMP JUMPDEST POP PUSH1 0x1 SWAP5 SWAP4 POP POP POP POP JUMP JUMPDEST PUSH1 0x60 PUSH1 0x1 DUP1 SLOAD PUSH2 0x186 SWAP1 PUSH2 0x5FD JUMP JUMPDEST PUSH0 PUSH2 0x213 CALLER DUP5 DUP5 PUSH2 0x3B7 JUMP JUMPDEST PUSH1 0x1 PUSH1 0x1 PUSH1 0xA0 SHL SUB DUP4 AND ISZERO DUP1 ISZERO SWAP1 PUSH2 0x315 JUMPI POP PUSH1 0x1 PUSH1 0x1 PUSH1 0xA0 SHL SUB DUP3 AND ISZERO ISZERO JUMPDEST PUSH2 0x357 JUMPI PUSH1 0x40 MLOAD PUSH3 0x461BCD PUSH1 0xE5 SHL DUP2 MSTORE PUSH1 0x20 PUSH1 0x4 DUP3 ADD MSTORE PUSH1 0x13 PUSH1 0x24 DUP3 ADD MSTORE PUSH19 0x45524332303A207A65726F2061646472657373 PUSH1 0x68 SHL PUSH1 0x44 DUP3 ADD MSTORE PUSH1 0x64 ADD PUSH2 0x293 JUMP JUMPDEST PUSH1 0x1 PUSH1 0x1 PUSH1 0xA0 SHL SUB DUP4 DUP2 AND PUSH0 DUP2 DUP2 MSTORE PUSH1 0x5 PUSH1 0x20 SWAP1 DUP2 MSTORE PUSH1 0x40 DUP1 DUP4 KECCAK256 SWAP5 DUP8 AND DUP1 DUP5 MSTORE SWAP5 DUP3 MSTORE SWAP2 DUP3 SWAP1 KECCAK256 DUP6 SWAP1 SSTORE SWAP1 MLOAD DUP5 DUP2 MSTORE PUSH32 0x8C5BE1E5EBEC7D5BD14F71427D1E84F3DD0314C0F7B2291E5B200AC8C7C3B925 SWAP2 ADD PUSH1 0x40 MLOAD DUP1 SWAP2 SUB SWAP1 LOG3 POP POP POP JUMP JUMPDEST PUSH1 0x1 PUSH1 0x1 PUSH1 0xA0 SHL SUB DUP4 AND ISZERO DUP1 ISZERO SWAP1 PUSH2 0x3D7 JUMPI POP PUSH1 0x1 PUSH1 0x1 PUSH1 0xA0 SHL SUB DUP3 AND ISZERO ISZERO JUMPDEST PUSH2 0x419 JUMPI PUSH1 0x40 MLOAD PUSH3 0x461BCD PUSH1 0xE5 SHL DUP2 MSTORE PUSH1 0x20 PUSH1 0x4 DUP3 ADD MSTORE PUSH1 0x13 PUSH1 0x24 DUP3 ADD MSTORE PUSH19 0x45524332303A207A65726F2061646472657373 PUSH1 0x68 SHL PUSH1 0x44 DUP3 ADD MSTORE PUSH1 0x64 ADD PUSH2 0x293 JUMP JUMPDEST PUSH1 0x1 PUSH1 0x1 PUSH1 0xA0 SHL SUB DUP4 AND PUSH0 SWAP1 DUP2 MSTORE PUSH1 0x4 PUSH1 0x20 MSTORE PUSH1 0x40 SWAP1 KECCAK256 SLOAD DUP2 DUP2 LT ISZERO PUSH2 0x478 JUMPI PUSH1 0x40 MLOAD PUSH3 0x461BCD PUSH1 0xE5 SHL DUP2 MSTORE PUSH1 0x20 PUSH1 0x4 DUP3 ADD MSTORE PUSH1 0x14 PUSH1 0x24 DUP3 ADD MSTORE PUSH20 0x45524332303A2062616C616E63653C76616C7565 PUSH1 0x60 SHL PUSH1 0x44 DUP3 ADD MSTORE PUSH1 0x64 ADD PUSH2 0x293 JUMP JUMPDEST PUSH1 0x1 PUSH1 0x1 PUSH1 0xA0 SHL SUB DUP1 DUP6 AND PUSH0 DUP2 DUP2 MSTORE PUSH1 0x4 PUSH1 0x20 MSTORE PUSH1 0x40 DUP1 DUP3 KECCAK256 DUP7 DUP7 SUB SWAP1 SSTORE SWAP3 DUP7 AND DUP1 DUP3 MSTORE SWAP1 DUP4 SWAP1 KECCAK256 DUP1 SLOAD DUP7 ADD SWAP1 SSTORE SWAP2 MLOAD PUSH32 0xDDF252AD1BE2C89B69C2B068FC378DAA952BA7F163C4A11628F55A4DF523B3EF SWAP1 PUSH2 0x4D7 SWAP1 DUP7 DUP2 MSTORE PUSH1 0x20 ADD SWAP1 JUMP JUMPDEST PUSH1 0x40 MLOAD DUP1 SWAP2 SUB SWAP1 LOG3 POP POP POP POP JUMP JUMPDEST PUSH0 PUSH1 0x20 DUP1 DUP4 MSTORE DUP4 MLOAD DUP1 DUP3 DUP6 ADD MSTORE PUSH0 JUMPDEST DUP2 DUP2 LT ISZERO PUSH2 0x510 JUMPI DUP6 DUP2 ADD DUP4 ADD MLOAD DUP6 DUP3 ADD PUSH1 0x40 ADD MSTORE DUP3 ADD PUSH2 0x4F4 JUMP JUMPDEST POP PUSH0 PUSH1 0x40 DUP3 DUP7 ADD ADD MSTORE PUSH1 0x40 PUSH1 0x1F NOT PUSH1 0x1F DUP4 ADD AND DUP6 ADD ADD SWAP3 POP POP POP SWAP3 SWAP2 POP POP JUMP JUMPDEST DUP1 CALLDATALOAD PUSH1 0x1 PUSH1 0x1 PUSH1 0xA0 SHL SUB DUP2 AND DUP2 EQ PUSH2 0x546 JUMPI PUSH0 DUP1 REVERT JUMPDEST SWAP2 SWAP1 POP JUMP JUMPDEST PUSH0 DUP1 PUSH1 0x40 DUP4 DUP6 SUB SLT ISZERO PUSH2 0x55C JUMPI PUSH0 DUP1 REVERT JUMPDEST PUSH2 0x565 DUP4 PUSH2 0x530 JUMP JUMPDEST SWAP5 PUSH1 0x20 SWAP4 SWAP1 SWAP4 ADD CALLDATALOAD SWAP4 POP POP POP JUMP JUMPDEST PUSH0 DUP1 PUSH0 PUSH1 0x60 DUP5 DUP7 SUB SLT ISZERO PUSH2 0x585 JUMPI PUSH0 DUP1 REVERT JUMPDEST PUSH2 0x58E DUP5 PUSH2 0x530 JUMP JUMPDEST SWAP3 POP PUSH2 0x59C PUSH1 0x20 DUP6 ADD PUSH2 0x530 JUMP JUMPDEST SWAP2 POP PUSH1 0x40 DUP5 ADD CALLDATALOAD SWAP1 POP SWAP3 POP SWAP3 POP SWAP3 JUMP JUMPDEST PUSH0 PUSH1 0x20 DUP3 DUP5 SUB SLT ISZERO PUSH2 0x5BC JUMPI PUSH0 DUP1 REVERT JUMPDEST PUSH2 0x5C5 DUP3 PUSH2 0x530 JUMP JUMPDEST SWAP4 SWAP3 POP POP POP JUMP JUMPDEST PUSH0 DUP1 PUSH1 0x40 DUP4 DUP6 SUB SLT ISZERO PUSH2 0x5DD JUMPI PUSH0 DUP1 REVERT JUMPDEST PUSH2 0x5E6 DUP4 PUSH2 0x530 JUMP JUMPDEST SWAP2 POP PUSH2 0x5F4 PUSH1 0x20 DUP5 ADD PUSH2 0x530 JUMP JUMPDEST SWAP1 POP SWAP3 POP SWAP3 SWAP1 POP JUMP JUMPDEST PUSH1 0x1 DUP2 DUP2 SHR SWAP1 DUP3 AND DUP1 PUSH2 0x611 JUMPI PUSH1 0x7F DUP3 AND SWAP2 POP JUMPDEST PUSH1 0x20 DUP3 LT DUP2 SUB PUSH2 0x62F JUMPI PUSH4 0x4E487B71 PUSH1 0xE0 SHL PUSH0 MSTORE PUSH1 0x22 PUSH1 0x4 MSTORE PUSH1 0x24 PUSH0 REVERT JUMPDEST POP SWAP2 SWAP1 POP JUMP INVALID LOG2 PUSH5 0x6970667358 0x22 SLT KECCAK256 PUSH15 0xB1C025267FF2A7F47A51FDF1625CC7 0xA8 PC 0xD8 CHAINID CODECOPY 0x4C 0x26 DUP2 PUSH5 0xCA9D2DC752 SWAP10 PUSH17 0x64736F6C63430008140033A26469706673 PC 0x22 SLT KECCAK256 SWAP3 0xAA NOT SWAP4 0xE6 CALLER 0x28 MULMOD SMOD 0xF9 SHR 0xF BYTE GASPRICE 0xCC JUMPDEST 0xB1 ISZERO SWAP5 0xB9 0xF9 PUSH0 PUSH20 0xA1A0C586CEA34F473B64736F6C63430008140033 "},"methodIdentifiers":{"allTokensLength()":"dbb80e42","createToken(string,string,uint8,uint256,address)":"5165749e","getAllTokens()":"2a5c792a","getTokens(uint256,uint256)":"494cfc6c","getTokensByOwner(address)":"40398d67","isTokenFromFactory(address)":"dbd59306","tokenAt(uint256)":"92a91a3a","tokenToOwner(address)":"4dfb4c53"}}}}}